:020000040000FA
:0400000000000528CF
:06000A008312031309201C
:100010004528831603138E140E140F178F160F1610
:10002000831203138C010B138B13FF308600C03037
:10003000242821080800FF3A8312031386000800D1
:0400400008000800AC
:040044000034003450
:0800480083160313A2008316C6
:100050000313060812388600831203133630940007
:1000600083160313220883160313930083160313C6
:100070009401831603138C11831203138C118316BE
:100080000313A001A101A201080021208312031380
:1000900064008C1D45288C114E20452883160313BF
:1000A00014082D3983160313A20009302206031DFC
:1000B000612883160313A001AD20831203131416C5
:1000C000080029302206031D7A28AD208316031369
:1000D000A008031D722883160313A10083160313BF
:1000E000A00A08001B2083160313A00A831603131B
:1000F000A10A080022082C390C3A031D882819206F
:10010000A12083160313A00A83160313A10A080073
:100110002C302206031D95281920A12083160313D5
:10012000A00A83160313A10A080028302206031D23
:100130009E288312031314162020080000009F2815
:100140000800831603131418A128831203139413B1
:100150009300941BA7281416080083120313130896
:02016000080095
:02400E00703F01
:00000001FF
