:020000040000FA
:0400000000000528CF
:06000A00831603138E149F
:100010000E140F178F160F16831203138C010B1378
:100020008B138316031306309F0083160313FF30D0
:1000300085008600831283160313A001C430592063
:100040007A28831603132208003A031D2928013059
:1000500038282208013A031D2F2843203828220877
:10006000023A031D37288316031320083828FF306F
:10007000080083160313A00108000800432083161C
:100080000313A0040800831203130301061C803825
:10009000051D4038851D2038051E1038851C083880
:0E00A000051C0438851F0238051F01380800B2
:0200AE0000341C
:0200B00000341A
:0E00B20083160313A3008316031306081238E7
:1000C000860083120313363094008316031323082B
:1000D00083160313930083160313940183160313EB
:1000E0008C11831203138C1183160313A101A20137
:1000F000A30108003E208312031364008C1D7A289C
:100100008C1183207A288316031314082D39831643
:100110000313A30009302306031D96288316031337
:10012000A101E220831203131416080029302306CC
:10013000031DAF28E22083160313A108031DA7287F
:1001400083160313A20083160313A10A08003920A3
:1001500083160313A10A83160313A20A08002308B7
:100160002C390C3A031DBD282120D62083160313F9
:10017000A10A83160313A20A08002C302306031DCC
:10018000CA282120D62083160313A10A831603133D
:10019000A20A080028302306031DD3288312031364
:1001A00014163D2008000000D4280800831603130D
:1001B0001418D6288312031394139300941BDC287D
:0C01C00014160800831203131308080033
:02400E00703F01
:00000001FF
